:100000000C942A000C943F000C943F000C943F0089
:100010000C943F000C943F000C943F000C943F0064
:100020000C943F000C943F000C943F000C943F0054
:100030000C943F000C943F000C943F000C943F0044
:100040000C943F000C943F000C943F000C943F0034
:100050000C943F0011241FBECFE5D4E0DEBFCDBF1E
:1000600010E0A0E6B0E0E6E3F1E002C005900D92FA
:10007000AA36B107D9F70E946D000C9499000C9430
:100080000000CF93C0E0611571058105910519F15C
:100090002FEF22BB2AE030E040E050E00E947700E2
:1000A000FB01E05AFF4F808185BB81E090E00C2E80
:1000B00002C0880F991F0A94E2F7809582BB622FD5
:1000C000732F842F952FE5EDF6E03197F1F700C0FF
:1000D0000000CF5FD8CFCF9108958FEF84BB81BB55
:1000E00068E775E080E090E00E944100F9CFA1E26E
:1000F0001A2EAA1BBB1BFD010DC0AA1FBB1FEE1FA2
:10010000FF1FA217B307E407F50720F0A21BB30BEC
:10011000E40BF50B661F771F881F991F1A9469F768
:1001200060957095809590959B01AC01BD01CF01C4
:060130000895F894FFCFD2
:0A0136003F065B4F666D7C077F6F8C
:00000001FF
