S02700006F6E655F64696769745F736576656E5F7365676D656E745F646973706C61792E7372656324
S11300000C942A000C943F000C943F000C943F0085
S11300100C943F000C943F000C943F000C943F0060
S11300200C943F000C943F000C943F000C943F0050
S11300300C943F000C943F000C943F000C943F0040
S11300400C943F000C943F000C943F000C943F0030
S11300500C943F0011241FBECFE5D4E0DEBFCDBF1A
S113006010E0A0E6B0E0E0EEF0E002C005900D92F2
S1130070AA36B107D9F70E9441000C946E000C9483
S11300800000CF93DF93CDB7DEB72A970FB6F8946D
S1130090DEBF0FBECDBF8AE0E0E6F0E0DE011196E0
S11300A001900D928A95E1F78FEF84BB89E0882354
S11300B0ECF3E1E0F0E0EC0FFD1FE80FF11D87FD2C
S11300C0FA95908195BB2FE936E891E021503040B4
S11300D09040E1F700C000008150E9CFF894FFCFD1
S10D00E03F065B4F666D7C077F6FDF
S9030000FC
