:100000000C942A000C943F000C943F000C943F0089
:100010000C943F000C943F000C943F000C943F0064
:100020000C943F000C943F000C943F000C943F0054
:100030000C943F000C943F000C943F000C943F0044
:100040000C943F000C943F000C943F000C943F0034
:100050000C943F0011241FBECFE5D4E0DEBFCDBF1E
:1000600010E0A0E6B0E0E6E5F1E002C005900D92F8
:10007000AA36B107D9F70E9441000C94A9000C944C
:100080000000CF93DF93CDB7DEB72A970FB6F89471
:10009000DEBF0FBECDBF8AE0E0E6F0E0DE011196E4
:1000A00001900D928A95E1F78FEF84BB81BB6BE7DE
:1000B00070E080E090E010E0611571058105910528
:1000C000B1F32FEF22BB2AE030E040E050E00E9485
:1000D0008700E1E0F0E0EC0FFD1FE60FF71F8081E5
:1000E00085BB81E090E0012E02C0880F991F0A9421
:1000F000E2F7809582BB622F732F842F952FE5ED59
:10010000F6E03197F1F700C000001F5FD5CFA1E204
:100110001A2EAA1BBB1BFD010DC0AA1FBB1FEE1F81
:10012000FF1FA217B307E407F50720F0A21BB30BCC
:10013000E40BF50B661F771F881F991F1A9469F748
:1001400060957095809590959B01AC01BD01CF01A4
:060150000895F894FFCFB2
:0A0156003F065B4F666D7C077F6F6C
:00000001FF
