S027000074776F5F64696769745F736576656E5F7365676D656E745F646973706C61792E737265630C
S11300000C942A000C943F000C943F000C943F0085
S11300100C943F000C943F000C943F000C943F0060
S11300200C943F000C943F000C943F000C943F0050
S11300300C943F000C943F000C943F000C943F0040
S11300400C943F000C943F000C943F000C943F0030
S11300500C943F0011241FBECFE5D4E0DEBFCDBF1A
S113006010E0A0E6B0E0ECE0F1E002C005900D92F3
S1130070AA36B107D9F70E9441000C9484000C946D
S11300800000CF93DF93CDB7DEB72A970FB6F8946D
S1130090DEBF0FBECDBF8AE0E0E6F0E0DE011196E0
S11300A001900D928A95E1F78FEF84BB81BB80E0CC
S11300B08436E8F79DEC899F912D112496959695A9
S11300C09695392F330F232F220F220F230F382F0A
S11300D0321BE1E0F0E0EC0FFD1FE30FF11D208186
S11300E022BBE1E0F0E0EC0FFD1FE90FF11D908170
S11300F095BB9FE926E831E0915020403040E1F77C
S10F010000C000008F5FD4CFF894FFCF44
S10D010C3F065B4F666D7C077F6FB2
S9030000FC
